:03000000020C20CF
:0C0C2000787FE4F6D8FD75812A020C678D
:100D7D00021B0000021D000005110000000000050F
:100D8D00080000000000051F00000000000516000F
:100D9D0000000000010E00012500012400011000DB
:060DAD00010D01010F0021
:100E0D00EF700375A03FBF010375A006BF02037508
:0F0E1D00A05BBF030375A04FBF040375A066223F
:080DB400D290C2917FD07E07AE
:100DBC00EF651E7003EE651D601C438910758DF880
:100DCC00758BCCD28E308FFDC28EC28F051EE51E68
:070DDC0070DE051D80DA2224
:080CAC007B007A0079167D023D
:080CB4008B268A2789288D296F
:100CBC00E4F52AAF29EF3395E08F82F583740112A6
:100CCC000AF3E4F52AE52A65296022AB26AA27A9AE
:100CDC0028AF2AEF3395E08F82F583120A93FFE554
:100CEC0029FD3395E08D82F583EF120AC0052AE5C4
:040CFC002AB405D140
:010D000022D0
:100B6A0020B00E7511017B007A007916E4FD120C93
:100B7A00B420B10E7512017B007A0079167D01123C
:100B8A000CB420B506751301120CAC20B30E751403
:100B9A00017B007A0079167D03120CB420B40E751D
:100BAA0015017B007A0079167D04120CB420870E99
:100BBA007508017B007A007916E4FD120CB42085D1
:100BCA000E7509017B007A0079167D01120CB4209A
:100BDA008306750A01120CAC208106750B01120CF2
:100BEA00AC20860E7520017B007A0079167D0112F1
:100BFA000CB4208406752101120CAC20820E7522D9
:100C0A00017B007A0079167D01120CB420800675EA
:060C1A002301120CAC22C4
:100E4000E4FF74162FF8E6B40101220FBF05F37F0B
:010E5000059C
:010E5100227E
:100D4500EF64017018C3ED64809485500D74162D01
:100D5500F8E660037F01220D80EB7F0022EF70171C
:100D6500C3ED64809480400D74162DF8E660037F12
:080D750001221D80EB7F00222A
:070E52002525F87600AF250D
:070E590074162FF8E4F622E5
:100DE300E4FF74112FF8E6B401037F0122741F2F6F
:100DF300F8E6B401037F012274082FF8E6B4010377
:090E03007F01220FBF05DB7F0017
:010E0C0022C3
:100D0100EF14600F1460121460191460042404704D
:100D110024801AD292C2958018D294C295C292C2EE
:100D2100938012D293C292C294C2958008D295C286
:100D310092C294C293E4FCFD0DBD00010CBC3FF8CE
:030D4100BDACF551
:010D4400228C
:10095400C2AF75FFDE75FFADD2AF75A881D2A975A0
:100964008901758CFF758AFF75B0FFE4F5A0759059
:10097400037580FF120B6AAF25120E0D120DE3EF03
:100984007003020A59E50DB40128120E40EF640504
:100994006020120E40C3EF6480F8E525648098500F
:1009A40008752401E4F5108006E4F524751001E4CB
:1009B400F50D74112525F8E664016014741F2525CE
:1009C400F8E66401600A74082525F8E66401704EAF
:1009D400E50F704A74112525F8E4F6741F2525F8EF
:1009E400E4F674082525F8E4F6C28CD290C2917F0F
:1009F400207E4E120DBC30B706D290C29180F730E3
:100A0400B608D290C291D29680F5C296E4F51DF54F
:100A14001EC290D291F50EAF25120E598069750F42
:100A240001E50E64017026120DB430B706D290C2EF
:100A34009180F730B608D290C291D29680F5C296D2
:100A4400E4F51DF51EC290D291F50E8004C290D239
:100A540091D28C8032E50E64017020120DB430B74F
:100A640006D290C29180F730B608D290C291D29645
:100A740080F5C296E4F51DF51EF50EC28CD291C226
:0F0A840090750D01E4F50FAF25120E0D020978E4
:03000B00020800E8
:10080000C0E0C0F0C0D075D000C000C004C005C0BA
:1008100006C007C3E51C940AE51B9400501FC28C58
:10082000AE1BAF1C7C007D05120B15AF05120D0130
:10083000D28E051CE51C7002051B020943C28CE523
:100840002460020525E51060021525AF25120E0D66
:1008500074112525F8E664017060750E017411129B
:100860000E52E524602874082525F8E6B4010774C3
:10087000082525F87600AD257F01120D45EF6008AB
:100880007510007524018006751001752400E510AF
:100890006028741F2525F8E6B40107741F2525F884
:1008A0007600AD25E4FF120D45EF60087524007554
:1008B00010018006752401751000E524603EE525D1
:1008C000B40410E523B4010B750E017523007F04F9
:1008D000120E5974082525F8E6B40108750E017446
:1008E00008120E52AD257F01120D45EF60087510FC
:1008F000007524018006751001752400E510603D27
:10090000E5257010E508B4010B750E01750800E4CB
:10091000FF120E59741F2525F8E6B40108750E0163
:10092000741F120E52AD25E4FF120D45EF600875DD
:1009300010017524008006751000752401751B00D8
:10094000751C00D007D006D005D004D000D0D0D080
:04095000F0D0E032D1
:03000300020E2CBE
:100E2C00C0E0C0D0E50EB40106751D00751E00D0E3
:040E3C00D0D0E03200
:100C2C00020954E493A3F8E493A34003F68001F281
:100C3C0008DFF48029E493A3F85407240CC8C333C9
:100C4C00C4540F4420C8834004F456800146F6DF98
:100C5C00E4800B0102040810204080900D7DE47E9E
:100C6C00019360BCA3FF543F30E509541FFEE4938D
:100C7C00A360010ECF54C025E060A840B8E493A354
:100C8C00FAE493A3F8E493A3C8C582C8CAC583CA7F
:100C9C00F0A3C8C582C8CAC583CADFE9DEE780BE37
:010DB300003F
:100A9300BB010CE58229F582E5833AF583E0225018
:100AA30006E92582F8E622BBFE06E92582F8E22262
:0D0AB300E58229F582E5833AF583E493227C
:100AC000BB010FF8E58229F582E5833AF583E0283A
:100AD000F0225009C58229F8E58226F622BBFE09DC
:100AE000C58229F8E22582F222F8EA2583F583E916
:030AF00093282226
:100AF300F8BB010DE58229F582E5833AF583E8F039
:100B0300225006E92582C8F622BBFE05E92582C8E4
:020B1300F222CC
:100B1500BC000BBE0029EF8DF084FFADF022E4CCC4
:100B2500F875F008EF2FFFEE33FEEC33FCEE9DEC8D
:100B3500984005FCEE9DFE0FD5F0E9E4CEFD22EDD3
:100B4500F8F5F0EE8420D21CFEADF075F008EF2F1D
:100B5500FFED33FD4007985006D5F0F222C398FD0E
:050B65000FD5F0EA22AB
:00000001FF
